{
  "contractName": "MyToken",
  "abi": [
    {
      "constant": true,
      "inputs": [],
      "name": "decimal",
      "outputs": [
        {
          "internalType": "uint256",
          "name": "",
          "type": "uint256"
        }
      ],
      "payable": false,
      "stateMutability": "view",
      "type": "function"
    },
    {
      "constant": true,
      "inputs": [],
      "name": "name",
      "outputs": [
        {
          "internalType": "string",
          "name": "",
          "type": "string"
        }
      ],
      "payable": false,
      "stateMutability": "view",
      "type": "function"
    },
    {
      "constant": true,
      "inputs": [],
      "name": "symbol",
      "outputs": [
        {
          "internalType": "string",
          "name": "",
          "type": "string"
        }
      ],
      "payable": false,
      "stateMutability": "view",
      "type": "function"
    },
    {
      "constant": true,
      "inputs": [],
      "name": "total_supply",
      "outputs": [
        {
          "internalType": "uint256",
          "name": "",
          "type": "uint256"
        }
      ],
      "payable": false,
      "stateMutability": "view",
      "type": "function"
    },
    {
      "constant": true,
      "inputs": [
        {
          "internalType": "address",
          "name": "user",
          "type": "address"
        }
      ],
      "name": "balanceOf",
      "outputs": [
        {
          "internalType": "uint256",
          "name": "",
          "type": "uint256"
        }
      ],
      "payable": false,
      "stateMutability": "view",
      "type": "function"
    },
    {
      "constant": true,
      "inputs": [],
      "name": "tokens_network",
      "outputs": [
        {
          "internalType": "uint256",
          "name": "",
          "type": "uint256"
        }
      ],
      "payable": false,
      "stateMutability": "view",
      "type": "function"
    },
    {
      "constant": false,
      "inputs": [
        {
          "internalType": "string",
          "name": "activity",
          "type": "string"
        }
      ],
      "name": "activities",
      "outputs": [
        {
          "internalType": "uint256",
          "name": "",
          "type": "uint256"
        }
      ],
      "payable": false,
      "stateMutability": "nonpayable",
      "type": "function"
    },
    {
      "constant": true,
      "inputs": [
        {
          "internalType": "uint256",
          "name": "ind",
          "type": "uint256"
        }
      ],
      "name": "acti_comp",
      "outputs": [
        {
          "internalType": "string",
          "name": "",
          "type": "string"
        }
      ],
      "payable": false,
      "stateMutability": "view",
      "type": "function"
    }
  ],
  "bytecode": "0x60806040526000805534801561001457600080fd5b50610640806100246000396000f3fe608060405234801561001057600080fd5b50600436106100885760003560e01c806376809ce31161005b57806376809ce3146101f057806395d89b41146101f8578063b4eda37e14610200578063c82843d71461020857610088565b806306fdde031461008d57806324fe37fd1461010a5780633940e9ee146101c257806370a08231146101ca575b600080fd5b610095610225565b6040805160208082528351818301528351919283929083019185019080838360005b838110156100cf5781810151838201526020016100b7565b50505050905090810190601f1680156100fc5780820380516001836020036101000a031916815260200191505b509250505060405180910390f35b6101b06004803603602081101561012057600080fd5b81019060208101813564010000000081111561013b57600080fd5b82018360208201111561014d57600080fd5b8035906020019184600183028401116401000000008311171561016f57600080fd5b91908080601f016020809104026020016040519081016040528093929190818152602001838380828437600092019190915250929550610248945050505050565b60408051918252519081900360200190f35b6101b061046e565b6101b0600480360360208110156101e057600080fd5b50356001600160a01b0316610474565b6101b061048f565b610095610494565b6101b06104b3565b6100956004803603602081101561021e57600080fd5b50356104ba565b604051806040016040528060078152602001662334b621b7b4b760c91b81525081565b60408051808201909152600781526672656164696e6760c81b6020918201528151908201206000907f9c27cdf9f99318310a2002fd19106d59beb5e830352ed29db7149d6c408f0b9d1415610303573360009081526001602081815260408084208054600a908101909155845401845560028252808420805493840180825590855293829020815180830190925260078083526672656164696e6760c81b929093019182526102f8930191610573565b505060019050610469565b604080518082019091526004815263626c6f6760e01b6020918201528251908301207fcde4cd6b52d73ab8b48d94499748f27fbc44a2064376c9cf7a787f01e0dc0d2f14156103b557336000908152600160208181526040808420805460149081019091558454018455600282528084208054938401808255908552938290208151808301909252600480835263626c6f6760e01b929093019182526103aa930191610573565b505060029050610469565b6040805180820190915260078152663bb2b134b730b960c91b6020918201528251908301207fa1dcc1d1809ef55c6e072bacdb9ac04ea14fe74144ca6009f2786f88949a15d51415610469573360009081526001602081815260408084208054601e90810190915584540184556002825280842080549384018082559085529382902081518083019092526007808352663bb2b134b730b960c91b92909301918252610462930191610573565b5050600390505b919050565b60005481565b6001600160a01b031660009081526001602052604090205490565b601281565b6040518060400160405280600381526020016246694360e81b81525081565b6000545b90565b336000908152600260205260409020805460609190839081106104d957fe5b600091825260209182902001805460408051601f60026000196101006001871615020190941693909304928301859004850281018501909152818152928301828280156105675780601f1061053c57610100808354040283529160200191610567565b820191906000526020600020905b81548152906001019060200180831161054a57829003601f168201915b50505050509050919050565b828054600181600116156101000203166002900490600052602060002090601f016020900481019282601f106105b457805160ff19168380011785556105e1565b828001600101855582156105e1579182015b828111156105e15782518255916020019190600101906105c6565b506105ed9291506105f1565b5090565b6104b791905b808211156105ed57600081556001016105f756fea265627a7a72315820aef1101adad534dabcab25e49d80e51493fa77b5a4e6132bec4fba33a4c8da1464736f6c63430005100032",
  "source": "pragma solidity ^0.5.16;\r\n\r\n//Contract for prototype\r\ncontract MyToken{\r\n\r\n    string public constant name = \"FilCoin\";\r\n    string public constant symbol = \"FiC\";\r\n    uint public constant decimal = 18;\r\n    uint public total_supply = 0;\r\n\r\n    //creating a map to keep the token balance of each individual\r\n    mapping(address => uint) token_balance;\r\n\r\n    //creating a map to keep the track of activities completed\r\n    mapping(address => string[]) activities_comp;\r\n\r\n    //function to provide the token blance of a user\r\n    function balanceOf(address user) public view returns(uint){\r\n        return token_balance[user];\r\n    }\r\n\r\n    //function to provide the total supply of coins available in the network\r\n    function tokens_network() public view returns(uint){\r\n        return total_supply;\r\n    }\r\n\r\n    //function to update the token balance of a user on completion of an activity\r\n    function activities(string memory activity) public returns(uint){\r\n        \r\n        if(keccak256(bytes(activity)) == keccak256(bytes(\"reading\"))){\r\n            token_balance[msg.sender] +=10;\r\n            total_supply +=10;\r\n            activities_comp[msg.sender].push(\"reading\");\r\n            return 1;\r\n        }\r\n\r\n        else if(keccak256(bytes(activity)) == keccak256(bytes(\"blog\"))){\r\n            token_balance[msg.sender] +=20;\r\n            total_supply +=20;\r\n            activities_comp[msg.sender].push(\"blog\");\r\n            return 2;\r\n        }\r\n\r\n        else if(keccak256(bytes(activity)) == keccak256(bytes(\"webinar\"))){\r\n            token_balance[msg.sender] +=30;\r\n            total_supply +=30;\r\n            activities_comp[msg.sender].push(\"webinar\");\r\n            return 3;\r\n        }\r\n\r\n    }\r\n\r\n    //function to check the activities compeleted by the user present at a particular index\r\n    function acti_comp(uint ind) public view returns(string memory){\r\n        return activities_comp[msg.sender][ind];\r\n    }\r\n\r\n}  ",
  "sourcePath": "C:\\Users\\A719646\\OneDrive - FIL\\Desktop\\Prototype\\contracts\\MyToken.sol",
  "compiler": {
    "name": "solc",
    "version": "0.5.16+commit.9c3226ce.Emscripten.clang"
  },
  "schemaVersion": "3.4.7",
  "updatedAt": "2022-05-22T20:22:10.952Z",
  "devdoc": {
    "methods": {}
  },
  "userdoc": {
    "methods": {}
  }
}